{
  "contractName": "PatentSell",
  "abi": [
    {
      "constant": true,
      "inputs": [
        {
          "name": "",
          "type": "address"
        }
      ],
      "name": "balances",
      "outputs": [
        {
          "name": "",
          "type": "uint256"
        }
      ],
      "payable": false,
      "stateMutability": "view",
      "type": "function"
    },
    {
      "constant": true,
      "inputs": [
        {
          "name": "",
          "type": "bytes32"
        }
      ],
      "name": "patentInfos",
      "outputs": [
        {
          "name": "owner",
          "type": "address"
        },
        {
          "name": "pn",
          "type": "bytes32"
        },
        {
          "name": "price",
          "type": "uint256"
        },
        {
          "name": "sold",
          "type": "bool"
        },
        {
          "name": "buyer",
          "type": "address"
        }
      ],
      "payable": false,
      "stateMutability": "view",
      "type": "function"
    },
    {
      "constant": true,
      "inputs": [
        {
          "name": "",
          "type": "uint256"
        }
      ],
      "name": "allPns",
      "outputs": [
        {
          "name": "",
          "type": "bytes32"
        }
      ],
      "payable": false,
      "stateMutability": "view",
      "type": "function"
    },
    {
      "constant": true,
      "inputs": [
        {
          "name": "",
          "type": "bytes32"
        }
      ],
      "name": "emailWalletMap",
      "outputs": [
        {
          "name": "",
          "type": "address"
        }
      ],
      "payable": false,
      "stateMutability": "view",
      "type": "function"
    },
    {
      "constant": true,
      "inputs": [
        {
          "name": "",
          "type": "address"
        },
        {
          "name": "",
          "type": "uint256"
        }
      ],
      "name": "userPatents",
      "outputs": [
        {
          "name": "",
          "type": "bytes32"
        }
      ],
      "payable": false,
      "stateMutability": "view",
      "type": "function"
    },
    {
      "anonymous": false,
      "inputs": [],
      "name": "Refresh",
      "type": "event"
    },
    {
      "constant": false,
      "inputs": [
        {
          "name": "email",
          "type": "bytes32"
        },
        {
          "name": "wallet",
          "type": "address"
        }
      ],
      "name": "bindWallet",
      "outputs": [],
      "payable": false,
      "stateMutability": "nonpayable",
      "type": "function"
    },
    {
      "constant": true,
      "inputs": [
        {
          "name": "email",
          "type": "bytes32"
        }
      ],
      "name": "getWallet",
      "outputs": [
        {
          "name": "",
          "type": "address"
        }
      ],
      "payable": false,
      "stateMutability": "view",
      "type": "function"
    },
    {
      "constant": false,
      "inputs": [
        {
          "name": "pn",
          "type": "bytes32"
        },
        {
          "name": "price",
          "type": "uint256"
        }
      ],
      "name": "publish",
      "outputs": [],
      "payable": false,
      "stateMutability": "nonpayable",
      "type": "function"
    },
    {
      "constant": true,
      "inputs": [
        {
          "name": "x",
          "type": "bytes32"
        }
      ],
      "name": "bytes32ToString",
      "outputs": [
        {
          "name": "",
          "type": "string"
        }
      ],
      "payable": false,
      "stateMutability": "view",
      "type": "function"
    },
    {
      "constant": true,
      "inputs": [],
      "name": "getAllSellingPatents",
      "outputs": [
        {
          "name": "",
          "type": "bytes32[]"
        },
        {
          "name": "",
          "type": "uint256[]"
        }
      ],
      "payable": false,
      "stateMutability": "view",
      "type": "function"
    },
    {
      "constant": false,
      "inputs": [],
      "name": "getMyPatents",
      "outputs": [
        {
          "components": [
            {
              "name": "pn",
              "type": "bytes32"
            },
            {
              "name": "price",
              "type": "uint256"
            },
            {
              "name": "sold",
              "type": "bool"
            }
          ],
          "name": "",
          "type": "tuple[]"
        }
      ],
      "payable": false,
      "stateMutability": "nonpayable",
      "type": "function"
    },
    {
      "constant": false,
      "inputs": [
        {
          "name": "pn",
          "type": "bytes32"
        },
        {
          "name": "price",
          "type": "uint256"
        }
      ],
      "name": "updatePrice",
      "outputs": [
        {
          "name": "",
          "type": "bytes32"
        }
      ],
      "payable": false,
      "stateMutability": "nonpayable",
      "type": "function"
    },
    {
      "constant": false,
      "inputs": [
        {
          "name": "pn",
          "type": "bytes32"
        }
      ],
      "name": "buy",
      "outputs": [
        {
          "name": "",
          "type": "bytes32"
        }
      ],
      "payable": true,
      "stateMutability": "payable",
      "type": "function"
    },
    {
      "constant": true,
      "inputs": [
        {
          "name": "addr",
          "type": "address"
        }
      ],
      "name": "getBalance",
      "outputs": [
        {
          "name": "",
          "type": "uint256"
        }
      ],
      "payable": false,
      "stateMutability": "view",
      "type": "function"
    },
    {
      "constant": false,
      "inputs": [
        {
          "name": "addr",
          "type": "address"
        },
        {
          "name": "amount",
          "type": "uint256"
        }
      ],
      "name": "addBalance",
      "outputs": [],
      "payable": false,
      "stateMutability": "nonpayable",
      "type": "function"
    }
  ],
  "bytecode": "0x608060405234801561001057600080fd5b506115a7806100206000396000f3006080604052600436106100db576000357c0100000000000000000000000000000000000000000000000000000000900463ffffffff16806321e5383a146100e057806327e235e3146101095780634d25dd1214610146578063546209fd146101715780635f704f3e146101b25780636719bc62146101ef578063789d392a1461022c5780637937a6b3146102695780639201de55146102a657806395aa3590146102e357806396c9d311146103205780639c9a10611461034c578063b19d632b1461037c578063c0953214146103a5578063f8b2cb4f146103ce575b600080fd5b3480156100ec57600080fd5b5061010760048036036101029190810190611051565b61040b565b005b34801561011557600080fd5b50610130600480360361012b9190810190611028565b61045c565b60405161013d9190611420565b60405180910390f35b34801561015257600080fd5b5061015b610474565b60405161016891906113c1565b60405180910390f35b34801561017d57600080fd5b506101986004803603610193919081019061108d565b61060c565b6040516101a9959493929190611337565b60405180910390f35b3480156101be57600080fd5b506101d960048036036101d491908101906110f2565b61068f565b6040516101e691906113e3565b60405180910390f35b3480156101fb57600080fd5b506102166004803603610211919081019061112e565b610737565b60405161022391906113e3565b60405180910390f35b34801561023857600080fd5b50610253600480360361024e919081019061108d565b61075a565b604051610260919061131c565b60405180910390f35b34801561027557600080fd5b50610290600480360361028b919081019061108d565b61079f565b60405161029d919061131c565b60405180910390f35b3480156102b257600080fd5b506102cd60048036036102c8919081019061108d565b6107d2565b6040516102da91906113fe565b60405180910390f35b3480156102ef57600080fd5b5061030a60048036036103059190810190611051565b6109ce565b60405161031791906113e3565b60405180910390f35b34801561032c57600080fd5b506103356109fe565b60405161034392919061138a565b60405180910390f35b6103666004803603610361919081019061108d565b610b55565b60405161037391906113e3565b60405180910390f35b34801561038857600080fd5b506103a3600480360361039e91908101906110f2565b610d5e565b005b3480156103b157600080fd5b506103cc60048036036103c791908101906110b6565b610f45565b005b3480156103da57600080fd5b506103f560048036036103f09190810190611028565b610fa3565b6040516104029190611420565b60405180910390f35b80600160008473ffffffffffffffffffffffffffffffffffffffff1673ffffffffffffffffffffffffffffffffffffffff168152602001908152602001600020600082825401925050819055505050565b60016020528060005260406000206000915090505481565b6060600080600080600092505b6000805490508310156105745760008381548110151561049d57fe5b9060005260206000200154915060036000836000191660001916815260200190815260200160002090508360606040519081016040528084600019168152602001836002015481526020018360030160009054906101000a900460ff16151581525090806001815401808255809150509060018203906000526020600020906003020160009091929091909150600082015181600001906000191690556020820151816001015560408201518160020160006101000a81548160ff0219169083151502179055505050508280600101935050610481565b83805480602002602001604051908101604052809291908181526020016000905b828210156105ff578382906000526020600020906003020160606040519081016040529081600082015460001916600019168152602001600182015481526020016002820160009054906101000a900460ff16151515158152505081526020019060010190610595565b5050505094505050505090565b60036020528060005260406000206000915090508060000160009054906101000a900473ffffffffffffffffffffffffffffffffffffffff16908060010154908060020154908060030160009054906101000a900460ff16908060030160019054906101000a900473ffffffffffffffffffffffffffffffffffffffff16905085565b600060036000846000191660001916815260200190815260200160002060030160009054906101000a900460ff16156106ea577f534f4c44000000000000000000000000000000000000000000000000000000009050610731565b81600360008560001916600019168152602001908152602001600020600201819055507f535543434553530000000000000000000000000000000000000000000000000090505b92915050565b60008181548110151561074657fe5b906000526020600020016000915090505481565b600060026000836000191660001916815260200190815260200160002060009054906101000a900473ffffffffffffffffffffffffffffffffffffffff169050919050565b60026020528060005260406000206000915054906101000a900473ffffffffffffffffffffffffffffffffffffffff1681565b6060806000806000606060206040519080825280601f01601f1916602001820160405280156108105781602001602082028038833980820191505090505b50945060009350600092505b60208310156108da578260080260020a876001900402600102915060007f010000000000000000000000000000000000000000000000000000000000000002827effffffffffffffffffffffffffffffffffffffffffffffffffffffffffffff19161415156108cd5781858581518110151561089457fe5b9060200101907effffffffffffffffffffffffffffffffffffffffffffffffffffffffffffff1916908160001a90535083806001019450505b828060010193505061081c565b836040519080825280601f01601f19166020018201604052801561090d5781602001602082028038833980820191505090505b509050600092505b838310156109c157848381518110151561092b57fe5b9060200101517f010000000000000000000000000000000000000000000000000000000000000090047f010000000000000000000000000000000000000000000000000000000000000002818481518110151561098457fe5b9060200101907effffffffffffffffffffffffffffffffffffffffffffffffffffffffffffff1916908160001a9053508280600101935050610915565b8095505050505050919050565b6004602052816000526040600020818154811015156109e957fe5b90600052602060002001600091509150505481565b606080606080600080600080600080549050604051908082528060200260200182016040528015610a3e5781602001602082028038833980820191505090505b509550600080549050604051908082528060200260200182016040528015610a755781602001602082028038833980820191505090505b50945060009350600092505b600080549050831015610b4557600083815481101515610a9d57fe5b9060005260206000200154915060036000836000191660001916815260200190815260200160002090508060030160009054906101000a900460ff1615610ae357610b38565b80600101548685815181101515610af657fe5b90602001906020020190600019169081600019168152505080600201548585815181101515610b2157fe5b906020019060200201818152505083806001019450505b8280600101935050610a81565b8585975097505050505050509091565b60008060036000846000191660001916815260200190815260200160002090508060030160009054906101000a900460ff1615610bb4577f534f4c44000000000000000000000000000000000000000000000000000000009150610d58565b80600201543373ffffffffffffffffffffffffffffffffffffffff16311015610bff577f494e53554646494349454e5400000000000000000000000000000000000000009150610d58565b8060020154600160003373ffffffffffffffffffffffffffffffffffffffff1673ffffffffffffffffffffffffffffffffffffffff168152602001908152602001600020600082825403925050819055508060020154600160008360000160009054906101000a900473ffffffffffffffffffffffffffffffffffffffff1673ffffffffffffffffffffffffffffffffffffffff1673ffffffffffffffffffffffffffffffffffffffff16815260200190815260200160002060008282540192505081905550338160030160016101000a81548173ffffffffffffffffffffffffffffffffffffffff021916908373ffffffffffffffffffffffffffffffffffffffff1602179055507f1d3b1e8b09cca9fd1fd9368ebd4a3eccf4c15846a1d369f733c51a0859bc715d60405160405180910390a17f535543434553530000000000000000000000000000000000000000000000000091505b50919050565b600460003373ffffffffffffffffffffffffffffffffffffffff1673ffffffffffffffffffffffffffffffffffffffff16815260200190815260200160002082908060018154018082558091505090600182039060005260206000200160009091929091909150906000191690555060a0604051908101604052803373ffffffffffffffffffffffffffffffffffffffff16815260200183600019168152602001828152602001600015158152602001600073ffffffffffffffffffffffffffffffffffffffff1681525060036000846000191660001916815260200190815260200160002060008201518160000160006101000a81548173ffffffffffffffffffffffffffffffffffffffff021916908373ffffffffffffffffffffffffffffffffffffffff160217905550602082015181600101906000191690556040820151816002015560608201518160030160006101000a81548160ff02191690831515021790555060808201518160030160016101000a81548173ffffffffffffffffffffffffffffffffffffffff021916908373ffffffffffffffffffffffffffffffffffffffff16021790555090505060008290806001815401808255809150509060018203906000526020600020016000909192909190915090600019169055505050565b8060026000846000191660001916815260200190815260200160002060006101000a81548173ffffffffffffffffffffffffffffffffffffffff021916908373ffffffffffffffffffffffffffffffffffffffff1602179055505050565b6000600160008373ffffffffffffffffffffffffffffffffffffffff1673ffffffffffffffffffffffffffffffffffffffff168152602001908152602001600020549050919050565b6000610ff882356114f5565b905092915050565b600061100c8235611515565b905092915050565b6000611020823561151f565b905092915050565b60006020828403121561103a57600080fd5b600061104884828501610fec565b91505092915050565b6000806040838503121561106457600080fd5b600061107285828601610fec565b925050602061108385828601611014565b9150509250929050565b60006020828403121561109f57600080fd5b60006110ad84828501611000565b91505092915050565b600080604083850312156110c957600080fd5b60006110d785828601611000565b92505060206110e885828601610fec565b9150509250929050565b6000806040838503121561110557600080fd5b600061111385828601611000565b925050602061112485828601611014565b9150509250929050565b60006020828403121561114057600080fd5b600061114e84828501611014565b91505092915050565b611160816114b5565b82525050565b600061117182611462565b8084526020840193506111838361143b565b60005b828110156111b557611199868351611286565b6111a28261148e565b9150602086019550600181019050611186565b50849250505092915050565b60006111cc8261146d565b8084526020840193506111de83611448565b60005b82811015611210576111f48683516112cb565b6111fd8261149b565b91506060860195506001810190506111e1565b50849250505092915050565b600061122782611478565b80845260208401935061123983611455565b60005b8281101561126b5761124f86835161130d565b611258826114a8565b915060208601955060018101905061123c565b50849250505092915050565b611280816114d5565b82525050565b61128f816114e1565b82525050565b60006112a082611483565b8084526112b4816020860160208601611529565b6112bd8161155c565b602085010191505092915050565b6060820160008201516112e16000850182611286565b5060208201516112f4602085018261130d565b5060408201516113076040850182611277565b50505050565b611316816114eb565b82525050565b60006020820190506113316000830184611157565b92915050565b600060a08201905061134c6000830188611157565b6113596020830187611286565b611366604083018661130d565b6113736060830185611277565b6113806080830184611157565b9695505050505050565b600060408201905081810360008301526113a48185611166565b905081810360208301526113b8818461121c565b90509392505050565b600060208201905081810360008301526113db81846111c1565b905092915050565b60006020820190506113f86000830184611286565b92915050565b600060208201905081810360008301526114188184611295565b905092915050565b6000602082019050611435600083018461130d565b92915050565b6000602082019050919050565b6000602082019050919050565b6000602082019050919050565b600081519050919050565b600081519050919050565b600081519050919050565b600081519050919050565b6000602082019050919050565b6000602082019050919050565b6000602082019050919050565b600073ffffffffffffffffffffffffffffffffffffffff82169050919050565b60008115159050919050565b6000819050919050565b6000819050919050565b600073ffffffffffffffffffffffffffffffffffffffff82169050919050565b6000819050919050565b6000819050919050565b60005b8381101561154757808201518184015260208101905061152c565b83811115611556576000848401525b50505050565b6000601f19601f83011690509190505600a265627a7a7230582051e9051b5adfc376149e8f21e39d6065bf90a65de0e4f5f54e3fc7233da4be0d6c6578706572696d656e74616cf50037",
  "source": "pragma solidity ^0.4.23;\npragma experimental ABIEncoderV2;\n\ncontract PatentSell {\n    // basic patent info\n    struct PatentInfo {\n        address owner;      // patent owner\n        bytes32 pn;         // patent number\n        uint price;         // published price\n        bool sold;          // sold already ?\n        address buyer;      // who bought this patent\n    }\n\n    // basic info for selling patents\n    struct SellingPatent {\n        bytes32 pn;\n        uint price;\n    }\n\n    // basic info for my patents\n    struct MyPatent {\n        bytes32 pn;\n        uint price;\n        bool sold;\n    }\n\n    event Refresh ();\n\n    bytes32[] public allPns;\n\n    mapping (address => uint) public balances;\n\n    mapping (bytes32 => address) public emailWalletMap;\n\n    mapping (bytes32 => PatentInfo) public patentInfos;\n\n    mapping (address => bytes32[]) public userPatents;\n\n    // bind wallet to an email\n    function bindWallet(bytes32 email, address wallet) public {\n        emailWalletMap[email] = wallet;\n    }\n\n    // get wallet address bind before\n    function getWallet(bytes32 email) public view returns (address) {\n        return emailWalletMap[email];\n    }\n\n    // publish a patent to platform\n    function publish(bytes32 pn, uint price) public {\n        // bind to current user patents\n        userPatents[msg.sender].push(pn);\n\n        // save patent detail info\n        patentInfos[pn] = PatentInfo({\n            owner : msg.sender,\n            pn : pn,\n            price : price,\n            sold : false,\n            buyer : 0\n        });\n\n        // add to pn list\n        allPns.push(pn);\n\n        // refresh pages\n//        emit Refresh();\n    }\n\n    function bytes32ToString(bytes32 x) constant returns (string) {\n        bytes memory bytesString = new bytes(32);\n        uint charCount = 0;\n        for (uint j = 0; j < 32; j++) {\n            byte char = byte(bytes32(uint(x) * 2 ** (8 * j)));\n            if (char != 0) {\n                bytesString[charCount] = char;\n                charCount++;\n            }\n        }\n        bytes memory bytesStringTrimmed = new bytes(charCount);\n        for (j = 0; j < charCount; j++) {\n            bytesStringTrimmed[j] = bytesString[j];\n        }\n        return string(bytesStringTrimmed);\n    }\n\n    // get all selling patents in platform\n    function getAllSellingPatents() public view returns (bytes32[], uint[]) {\n        bytes32[] memory pns = new bytes32[](allPns.length);\n        uint[] memory prices = new uint[](allPns.length);\n        uint count = 0;\n        for (uint idx = 0; idx < allPns.length; idx++) {\n            bytes32 pn = allPns[idx];\n            PatentInfo storage info = patentInfos[pn];\n            if (info.sold) {\n                continue;\n            }\n\n            pns[count] = info.pn;\n            prices[count] = info.price;\n            count++;\n        }\n\n        return (pns, prices);\n    }\n\n    // get all patents published by me\n    function getMyPatents() public returns (MyPatent[]) {\n        MyPatent[] patents;\n        for (uint idx = 0; idx < allPns.length; idx++) {\n            bytes32 pn = allPns[idx];\n            PatentInfo storage info = patentInfos[pn];\n            patents.push(MyPatent({\n                pn : pn,\n                sold : info.sold,\n                price : info.price\n            }));\n        }\n        return patents;\n    }\n\n    // update patent price\n    function updatePrice(bytes32 pn, uint price) public returns (bytes32) {\n        if (patentInfos[pn].sold) {\n            return \"SOLD\";\n        }\n\n        patentInfos[pn].price = price;\n        return \"SUCCESS\";\n    }\n\n    // buy a patent\n    function buy(bytes32 pn) public payable returns (bytes32) {\n        PatentInfo storage info = patentInfos[pn];\n        if (info.sold) {\n            return \"SOLD\";\n        }\n\n        if (msg.sender.balance < info.price) {\n            return \"INSUFFICIENT\";\n        }\n\n        balances[msg.sender] -= info.price;\n        balances[info.owner] += info.price;\n        info.buyer = msg.sender;\n\n        // refresh pages\n        emit Refresh();\n        return \"SUCCESS\";\n    }\n\n    // get balance of current account\n    function getBalance(address addr) public view returns (uint) {\n        return balances[addr];\n    }\n\n    // add more balance\n    function addBalance(address addr, uint amount) public {\n        balances[addr] += amount;\n    }\n}",
  "sourcePath": "/home/dongdong/blockchain/ethereum/pet-shop/contracts/PatentSell.sol",
  "compiler": {
    "name": "solc",
    "version": "0.4.23+commit.124ca40d.Emscripten.clang"
  },
  "schemaVersion": "2.0.0",
  "updatedAt": "2018-05-24T16:07:13.386Z"
}