{
  "contractName": "PatentSell",
  "abi": [
    {
      "constant": true,
      "inputs": [
        {
          "name": "",
          "type": "address"
        }
      ],
      "name": "balances",
      "outputs": [
        {
          "name": "",
          "type": "uint256"
        }
      ],
      "payable": false,
      "stateMutability": "view",
      "type": "function"
    },
    {
      "constant": true,
      "inputs": [
        {
          "name": "",
          "type": "bytes32"
        }
      ],
      "name": "patentInfos",
      "outputs": [
        {
          "name": "owner",
          "type": "address"
        },
        {
          "name": "pn",
          "type": "bytes32"
        },
        {
          "name": "price",
          "type": "uint256"
        },
        {
          "name": "sold",
          "type": "bool"
        },
        {
          "name": "buyer",
          "type": "address"
        },
        {
          "name": "timestamp",
          "type": "bytes32"
        }
      ],
      "payable": false,
      "stateMutability": "view",
      "type": "function"
    },
    {
      "constant": true,
      "inputs": [
        {
          "name": "",
          "type": "uint256"
        }
      ],
      "name": "allPns",
      "outputs": [
        {
          "name": "",
          "type": "bytes32"
        }
      ],
      "payable": false,
      "stateMutability": "view",
      "type": "function"
    },
    {
      "constant": true,
      "inputs": [
        {
          "name": "",
          "type": "bytes32"
        }
      ],
      "name": "emailWalletMap",
      "outputs": [
        {
          "name": "",
          "type": "address"
        }
      ],
      "payable": false,
      "stateMutability": "view",
      "type": "function"
    },
    {
      "constant": true,
      "inputs": [
        {
          "name": "",
          "type": "address"
        },
        {
          "name": "",
          "type": "uint256"
        }
      ],
      "name": "userPatents",
      "outputs": [
        {
          "name": "",
          "type": "bytes32"
        }
      ],
      "payable": false,
      "stateMutability": "view",
      "type": "function"
    },
    {
      "anonymous": false,
      "inputs": [
        {
          "indexed": false,
          "name": "evtType",
          "type": "bytes32"
        },
        {
          "indexed": false,
          "name": "pn",
          "type": "bytes32"
        }
      ],
      "name": "Refresh",
      "type": "event"
    },
    {
      "constant": false,
      "inputs": [
        {
          "name": "email",
          "type": "bytes32"
        },
        {
          "name": "wallet",
          "type": "address"
        }
      ],
      "name": "bindWallet",
      "outputs": [],
      "payable": false,
      "stateMutability": "nonpayable",
      "type": "function"
    },
    {
      "constant": true,
      "inputs": [
        {
          "name": "email",
          "type": "bytes32"
        }
      ],
      "name": "getWallet",
      "outputs": [
        {
          "name": "",
          "type": "address"
        }
      ],
      "payable": false,
      "stateMutability": "view",
      "type": "function"
    },
    {
      "constant": false,
      "inputs": [
        {
          "name": "pn",
          "type": "bytes32"
        },
        {
          "name": "price",
          "type": "uint256"
        },
        {
          "name": "timestamp",
          "type": "bytes32"
        }
      ],
      "name": "publish",
      "outputs": [],
      "payable": false,
      "stateMutability": "nonpayable",
      "type": "function"
    },
    {
      "constant": true,
      "inputs": [],
      "name": "getAllSellingPatents",
      "outputs": [
        {
          "name": "",
          "type": "bytes32[]"
        },
        {
          "name": "",
          "type": "uint256[]"
        },
        {
          "name": "",
          "type": "bytes32[]"
        }
      ],
      "payable": false,
      "stateMutability": "view",
      "type": "function"
    },
    {
      "constant": false,
      "inputs": [],
      "name": "getMyPatents",
      "outputs": [
        {
          "name": "",
          "type": "bytes32[]"
        },
        {
          "name": "",
          "type": "uint256[]"
        },
        {
          "name": "",
          "type": "bool[]"
        },
        {
          "name": "",
          "type": "bytes32[]"
        }
      ],
      "payable": false,
      "stateMutability": "nonpayable",
      "type": "function"
    },
    {
      "constant": false,
      "inputs": [
        {
          "name": "pn",
          "type": "bytes32"
        },
        {
          "name": "price",
          "type": "uint256"
        }
      ],
      "name": "updatePrice",
      "outputs": [
        {
          "name": "",
          "type": "bytes32"
        }
      ],
      "payable": false,
      "stateMutability": "nonpayable",
      "type": "function"
    },
    {
      "constant": false,
      "inputs": [
        {
          "name": "pn",
          "type": "bytes32"
        }
      ],
      "name": "buy",
      "outputs": [
        {
          "name": "",
          "type": "bytes32"
        }
      ],
      "payable": true,
      "stateMutability": "payable",
      "type": "function"
    },
    {
      "constant": true,
      "inputs": [],
      "name": "getBalance",
      "outputs": [
        {
          "name": "",
          "type": "uint256"
        }
      ],
      "payable": false,
      "stateMutability": "view",
      "type": "function"
    },
    {
      "constant": false,
      "inputs": [
        {
          "name": "amount",
          "type": "uint256"
        }
      ],
      "name": "addBalance",
      "outputs": [],
      "payable": false,
      "stateMutability": "nonpayable",
      "type": "function"
    }
  ],
  "bytecode": "0x608060405234801561001057600080fd5b50611577806100206000396000f3006080604052600436106100d0576000357c0100000000000000000000000000000000000000000000000000000000900463ffffffff16806312065fe0146100d5578063215407061461010057806327e235e3146101295780634d25dd1214610166578063546209fd146101945780635f704f3e146101d65780636719bc6214610213578063789d392a146102505780637937a6b31461028d57806395aa3590146102ca57806396c9d311146103075780639c9a106114610334578063c095321414610364578063d91921ed1461038d575b600080fd5b3480156100e157600080fd5b506100ea6103b6565b6040516100f7919061143f565b60405180910390f35b34801561010c57600080fd5b506101276004803603610122919081019061109c565b6103fd565b005b34801561013557600080fd5b50610150600480360361014b9190810190610f96565b610672565b60405161015d919061143f565b60405180910390f35b34801561017257600080fd5b5061017b61068a565b60405161018b9493929190611329565b60405180910390f35b3480156101a057600080fd5b506101bb60048036036101b69190810190610ffb565b6108db565b6040516101cd969594939291906112c8565b60405180910390f35b3480156101e257600080fd5b506101fd60048036036101f89190810190611060565b610964565b60405161020a91906113d6565b60405180910390f35b34801561021f57600080fd5b5061023a600480360361023591908101906110eb565b610a0c565b60405161024791906113d6565b60405180910390f35b34801561025c57600080fd5b5061027760048036036102729190810190610ffb565b610a2f565b60405161028491906112ad565b60405180910390f35b34801561029957600080fd5b506102b460048036036102af9190810190610ffb565b610a74565b6040516102c191906112ad565b60405180910390f35b3480156102d657600080fd5b506102f160048036036102ec9190810190610fbf565b610aa7565b6040516102fe91906113d6565b60405180910390f35b34801561031357600080fd5b5061031c610ad7565b60405161032b9392919061138a565b60405180910390f35b61034e60048036036103499190810190610ffb565b610c98565b60405161035b91906113d6565b60405180910390f35b34801561037057600080fd5b5061038b60048036036103869190810190611024565b610eac565b005b34801561039957600080fd5b506103b460048036036103af91908101906110eb565b610f0a565b005b6000600160003373ffffffffffffffffffffffffffffffffffffffff1673ffffffffffffffffffffffffffffffffffffffff16815260200190815260200160002054905090565b60006003600085600019166000191681526020019081526020016000206002015411156104295761066d565b6000821115156104385761066d565b600460003373ffffffffffffffffffffffffffffffffffffffff1673ffffffffffffffffffffffffffffffffffffffff16815260200190815260200160002083908060018154018082558091505090600182039060005260206000200160009091929091909150906000191690555060c0604051908101604052803373ffffffffffffffffffffffffffffffffffffffff16815260200184600019168152602001838152602001600015158152602001600073ffffffffffffffffffffffffffffffffffffffff168152602001826000191681525060036000856000191660001916815260200190815260200160002060008201518160000160006101000a81548173ffffffffffffffffffffffffffffffffffffffff021916908373ffffffffffffffffffffffffffffffffffffffff160217905550602082015181600101906000191690556040820151816002015560608201518160030160006101000a81548160ff02191690831515021790555060808201518160030160016101000a81548173ffffffffffffffffffffffffffffffffffffffff021916908373ffffffffffffffffffffffffffffffffffffffff16021790555060a0820151816004019060001916905590505060008390806001815401808255809150509060018203906000526020600020016000909192909190915090600019169055507facb19f405b56c5c8aeffca19f59c23c6d4cf3ceffd90ca768b89465ef72fdf768360405161066491906113f1565b60405180910390a15b505050565b60016020528060005260406000206000915090505481565b6060806060806000606080606080600080600080600460003373ffffffffffffffffffffffffffffffffffffffff1673ffffffffffffffffffffffffffffffffffffffff168152602001908152602001600020985088805490506040519080825280602002602001820160405280156107125781602001602082028038833980820191505090505b50975088805490506040519080825280602002602001820160405280156107485781602001602082028038833980820191505090505b509650888054905060405190808252806020026020018201604052801561077e5781602001602082028038833980820191505090505b50955088805490506040519080825280602002602001820160405280156107b45781602001602082028038833980820191505090505b50945060009350600092505b88805490508310156108c05788838154811015156107da57fe5b90600052602060002001549150600360008360001916600019168152602001908152602001600020905081888581518110151561081357fe5b9060200190602002019060001916908160001916815250508060020154878581518110151561083e57fe5b90602001906020020181815250508060030160009054906101000a900460ff16868581518110151561086c57fe5b90602001906020020190151590811515815250508060040154858581518110151561089357fe5b906020019060200201906000191690816000191681525050838060010194505082806001019350506107c0565b878787879c509c509c509c5050505050505050505090919293565b60036020528060005260406000206000915090508060000160009054906101000a900473ffffffffffffffffffffffffffffffffffffffff16908060010154908060020154908060030160009054906101000a900460ff16908060030160019054906101000a900473ffffffffffffffffffffffffffffffffffffffff16908060040154905086565b600060036000846000191660001916815260200190815260200160002060030160009054906101000a900460ff16156109bf577f534f4c44000000000000000000000000000000000000000000000000000000009050610a06565b81600360008560001916600019168152602001908152602001600020600201819055507f535543434553530000000000000000000000000000000000000000000000000090505b92915050565b600081815481101515610a1b57fe5b906000526020600020016000915090505481565b600060026000836000191660001916815260200190815260200160002060009054906101000a900473ffffffffffffffffffffffffffffffffffffffff169050919050565b60026020528060005260406000206000915054906101000a900473ffffffffffffffffffffffffffffffffffffffff1681565b600460205281600052604060002081815481101515610ac257fe5b90600052602060002001600091509150505481565b606080606080606080600080600080600080549050604051908082528060200260200182016040528015610b1a5781602001602082028038833980820191505090505b509650600080549050604051908082528060200260200182016040528015610b515781602001602082028038833980820191505090505b509550600080549050604051908082528060200260200182016040528015610b885781602001602082028038833980820191505090505b50945060009350600092505b600080549050831015610c8357600083815481101515610bb057fe5b9060005260206000200154915060036000836000191660001916815260200190815260200160002090508060030160009054906101000a900460ff1615610bf657610c76565b80600101548785815181101515610c0957fe5b90602001906020020190600019169081600019168152505080600201548685815181101515610c3457fe5b906020019060200201818152505080600401548585815181101515610c5557fe5b90602001906020020190600019169081600019168152505083806001019450505b8280600101935050610b94565b86868699509950995050505050505050909192565b60008060036000846000191660001916815260200190815260200160002090508060030160009054906101000a900460ff1615610cf7577f534f4c44000000000000000000000000000000000000000000000000000000009150610ea6565b80600201543373ffffffffffffffffffffffffffffffffffffffff16311015610d42577f494e53554646494349454e5400000000000000000000000000000000000000009150610ea6565b8060020154600160003373ffffffffffffffffffffffffffffffffffffffff1673ffffffffffffffffffffffffffffffffffffffff168152602001908152602001600020600082825403925050819055508060020154600160008360000160009054906101000a900473ffffffffffffffffffffffffffffffffffffffff1673ffffffffffffffffffffffffffffffffffffffff1673ffffffffffffffffffffffffffffffffffffffff16815260200190815260200160002060008282540192505081905550338160030160016101000a81548173ffffffffffffffffffffffffffffffffffffffff021916908373ffffffffffffffffffffffffffffffffffffffff1602179055507facb19f405b56c5c8aeffca19f59c23c6d4cf3ceffd90ca768b89465ef72fdf7683604051610e7a9190611418565b60405180910390a17f535543434553530000000000000000000000000000000000000000000000000091505b50919050565b8060026000846000191660001916815260200190815260200160002060006101000a81548173ffffffffffffffffffffffffffffffffffffffff021916908373ffffffffffffffffffffffffffffffffffffffff1602179055505050565b80600160003373ffffffffffffffffffffffffffffffffffffffff1673ffffffffffffffffffffffffffffffffffffffff1681526020019081526020016000206000828254019250508190555050565b6000610f668235611509565b905092915050565b6000610f7a8235611529565b905092915050565b6000610f8e8235611533565b905092915050565b600060208284031215610fa857600080fd5b6000610fb684828501610f5a565b91505092915050565b60008060408385031215610fd257600080fd5b6000610fe085828601610f5a565b9250506020610ff185828601610f82565b9150509250929050565b60006020828403121561100d57600080fd5b600061101b84828501610f6e565b91505092915050565b6000806040838503121561103757600080fd5b600061104585828601610f6e565b925050602061105685828601610f5a565b9150509250929050565b6000806040838503121561107357600080fd5b600061108185828601610f6e565b925050602061109285828601610f82565b9150509250929050565b6000806000606084860312156110b157600080fd5b60006110bf86828701610f6e565b93505060206110d086828701610f82565b92505060406110e186828701610f6e565b9150509250925092565b6000602082840312156110fd57600080fd5b600061110b84828501610f82565b91505092915050565b61111d816114c9565b82525050565b600061112e82611481565b8084526020840193506111408361145a565b60005b8281101561117257611156868351611234565b61115f826114a2565b9150602086019550600181019050611143565b50849250505092915050565b60006111898261148c565b80845260208401935061119b83611467565b60005b828110156111cd576111b1868351611243565b6111ba826114af565b915060208601955060018101905061119e565b50849250505092915050565b60006111e482611497565b8084526020840193506111f683611474565b60005b828110156112285761120c86835161129e565b611215826114bc565b91506020860195506001810190506111f9565b50849250505092915050565b61123d816114e9565b82525050565b61124c816114f5565b82525050565b7f5055424c49534800000000000000000000000000000000000000000000000000815250565b7f4255590000000000000000000000000000000000000000000000000000000000815250565b6112a7816114ff565b82525050565b60006020820190506112c26000830184611114565b92915050565b600060c0820190506112dd6000830189611114565b6112ea6020830188611243565b6112f7604083018761129e565b6113046060830186611234565b6113116080830185611114565b61131e60a0830184611243565b979650505050505050565b60006080820190508181036000830152611343818761117e565b9050818103602083015261135781866111d9565b9050818103604083015261136b8185611123565b9050818103606083015261137f818461117e565b905095945050505050565b600060608201905081810360008301526113a4818661117e565b905081810360208301526113b881856111d9565b905081810360408301526113cc818461117e565b9050949350505050565b60006020820190506113eb6000830184611243565b92915050565b600060408201905061140560008301611252565b6114126020830184611243565b92915050565b600060408201905061142c60008301611278565b6114396020830184611243565b92915050565b6000602082019050611454600083018461129e565b92915050565b6000602082019050919050565b6000602082019050919050565b6000602082019050919050565b600081519050919050565b600081519050919050565b600081519050919050565b6000602082019050919050565b6000602082019050919050565b6000602082019050919050565b600073ffffffffffffffffffffffffffffffffffffffff82169050919050565b60008115159050919050565b6000819050919050565b6000819050919050565b600073ffffffffffffffffffffffffffffffffffffffff82169050919050565b6000819050919050565b60008190509190505600a265627a7a72305820be7bec000852eec517de63c9ea6abf4518209de3516fc5fab89e7a14f38edd486c6578706572696d656e74616cf50037",
  "source": "pragma solidity ^0.4.23;\npragma experimental ABIEncoderV2;\n\ncontract PatentSell {\n    // basic patent info\n    struct PatentInfo {\n        address owner;      // patent owner\n        bytes32 pn;         // patent number\n        uint price;         // published price\n        bool sold;          // sold already ?\n        address buyer;      // who bought this patent\n        bytes32 timestamp;  // publish time\n    }\n\n    event Refresh (bytes32 evtType, bytes32 pn);\n\n    bytes32[] public allPns;\n\n    mapping (address => uint) public balances;\n\n    mapping (bytes32 => address) public emailWalletMap;\n\n    mapping (bytes32 => PatentInfo) public patentInfos;\n\n    mapping (address => bytes32[]) public userPatents;\n\n    // bind wallet to an email\n    function bindWallet(bytes32 email, address wallet) public {\n        emailWalletMap[email] = wallet;\n    }\n\n    // get wallet address bind before\n    function getWallet(bytes32 email) public view returns (address) {\n        return emailWalletMap[email];\n    }\n\n    // publish a patent to platform\n    function publish(bytes32 pn, uint price, bytes32 timestamp) public {\n        if (patentInfos[pn].price > 0) {\n            return;\n        }\n\n        if (price <= uint(0x0)) {\n            return;\n        }\n\n        // bind to current user patents\n        userPatents[msg.sender].push(pn);\n\n        // save patent detail info\n        patentInfos[pn] = PatentInfo({\n            owner : msg.sender,\n            pn : pn,\n            price : price,\n            sold : false,\n            buyer : 0,\n            timestamp: timestamp\n        });\n\n        // add to pn list\n        allPns.push(pn);\n\n        // refresh pages\n        emit Refresh(\"PUBLISH\", pn);\n    }\n\n    // get all selling patents in platform\n    function getAllSellingPatents() public view returns (bytes32[], uint[], bytes32[]) {\n        bytes32[] memory pns = new bytes32[](allPns.length);\n        uint[] memory prices = new uint[](allPns.length);\n        bytes32[] memory timestamps = new bytes32[](allPns.length);\n        uint count = 0;\n        for (uint idx = 0; idx < allPns.length; idx++) {\n            bytes32 pn = allPns[idx];\n            PatentInfo storage info = patentInfos[pn];\n            if (info.sold) {\n                continue;\n            }\n\n            pns[count] = info.pn;\n            prices[count] = info.price;\n            timestamps[count] = info.timestamp;\n            count++;\n        }\n\n        return (pns, prices, timestamps);\n    }\n\n    // get all patents published by me\n    function getMyPatents() public returns (bytes32[], uint[], bool[], bytes32[]) {\n        bytes32[] storage patents = userPatents[msg.sender];\n        bytes32[] memory pns = new bytes32[](patents.length);\n        uint[] memory prices = new uint[](patents.length);\n        bool[] memory solds = new bool[](patents.length);\n        bytes32[] memory timestamps = new bytes32[](patents.length);\n\n        uint count = 0;\n        for (uint idx = 0; idx < patents.length; idx++) {\n            bytes32 pn = patents[idx];\n            PatentInfo storage info = patentInfos[pn];\n            pns[count] = pn;\n            prices[count] = info.price;\n            solds[count] = info.sold;\n            timestamps[count] = info.timestamp;\n            count++;\n        }\n        return (pns, prices, solds, timestamps);\n    }\n\n    // update patent price\n    function updatePrice(bytes32 pn, uint price) public returns (bytes32) {\n        if (patentInfos[pn].sold) {\n            return \"SOLD\";\n        }\n\n        patentInfos[pn].price = price;\n        return \"SUCCESS\";\n    }\n\n    // buy a patent\n    function buy(bytes32 pn) public payable returns (bytes32) {\n        PatentInfo storage info = patentInfos[pn];\n        if (info.sold) {\n            return \"SOLD\";\n        }\n\n        if (msg.sender.balance < info.price) {\n            return \"INSUFFICIENT\";\n        }\n\n        balances[msg.sender] -= info.price;\n        balances[info.owner] += info.price;\n        info.buyer = msg.sender;\n\n        // refresh pages\n        emit Refresh(\"BUY\", pn);\n        return \"SUCCESS\";\n    }\n\n    // get balance of current account\n    function getBalance() public view returns (uint) {\n        return balances[msg.sender];\n    }\n\n    // add more balance\n    function addBalance(uint amount) public {\n        balances[msg.sender] += amount;\n    }\n}\n",
  "sourcePath": "F:\\blockchain\\peppa\\contracts\\PatentSell.sol",
  "compiler": {
    "name": "solc",
    "version": "0.4.23+commit.124ca40d.Emscripten.clang"
  },
  "schemaVersion": "2.0.0",
  "updatedAt": "2018-05-25T11:25:43.884Z"
}