{
  "contractName": "PatentSell",
  "abi": [
    {
      "constant": true,
      "inputs": [
        {
          "name": "",
          "type": "address"
        }
      ],
      "name": "balances",
      "outputs": [
        {
          "name": "",
          "type": "uint256"
        }
      ],
      "payable": false,
      "stateMutability": "view",
      "type": "function"
    },
    {
      "constant": true,
      "inputs": [
        {
          "name": "",
          "type": "bytes32"
        }
      ],
      "name": "patentInfos",
      "outputs": [
        {
          "name": "owner",
          "type": "address"
        },
        {
          "name": "pn",
          "type": "bytes32"
        },
        {
          "name": "price",
          "type": "uint256"
        },
        {
          "name": "sold",
          "type": "bool"
        },
        {
          "name": "buyer",
          "type": "address"
        },
        {
          "name": "timestamp",
          "type": "bytes32"
        }
      ],
      "payable": false,
      "stateMutability": "view",
      "type": "function"
    },
    {
      "constant": true,
      "inputs": [
        {
          "name": "",
          "type": "uint256"
        }
      ],
      "name": "allPns",
      "outputs": [
        {
          "name": "",
          "type": "bytes32"
        }
      ],
      "payable": false,
      "stateMutability": "view",
      "type": "function"
    },
    {
      "constant": true,
      "inputs": [
        {
          "name": "",
          "type": "bytes32"
        }
      ],
      "name": "emailWalletMap",
      "outputs": [
        {
          "name": "",
          "type": "address"
        }
      ],
      "payable": false,
      "stateMutability": "view",
      "type": "function"
    },
    {
      "constant": true,
      "inputs": [
        {
          "name": "",
          "type": "address"
        },
        {
          "name": "",
          "type": "uint256"
        }
      ],
      "name": "userPatents",
      "outputs": [
        {
          "name": "",
          "type": "bytes32"
        }
      ],
      "payable": false,
      "stateMutability": "view",
      "type": "function"
    },
    {
      "constant": false,
      "inputs": [
        {
          "name": "email",
          "type": "bytes32"
        },
        {
          "name": "wallet",
          "type": "address"
        }
      ],
      "name": "bindWallet",
      "outputs": [],
      "payable": false,
      "stateMutability": "nonpayable",
      "type": "function"
    },
    {
      "constant": true,
      "inputs": [
        {
          "name": "email",
          "type": "bytes32"
        }
      ],
      "name": "getWallet",
      "outputs": [
        {
          "name": "",
          "type": "address"
        }
      ],
      "payable": false,
      "stateMutability": "view",
      "type": "function"
    },
    {
      "constant": false,
      "inputs": [
        {
          "name": "pn",
          "type": "bytes32"
        },
        {
          "name": "price",
          "type": "uint256"
        },
        {
          "name": "timestamp",
          "type": "bytes32"
        }
      ],
      "name": "publish",
      "outputs": [],
      "payable": false,
      "stateMutability": "nonpayable",
      "type": "function"
    },
    {
      "constant": true,
      "inputs": [],
      "name": "getAllSellingPatents",
      "outputs": [
        {
          "name": "",
          "type": "bytes32[]"
        },
        {
          "name": "",
          "type": "uint256[]"
        },
        {
          "name": "",
          "type": "bytes32[]"
        }
      ],
      "payable": false,
      "stateMutability": "view",
      "type": "function"
    },
    {
      "constant": false,
      "inputs": [],
      "name": "getMyPatents",
      "outputs": [
        {
          "name": "",
          "type": "bytes32[]"
        },
        {
          "name": "",
          "type": "uint256[]"
        },
        {
          "name": "",
          "type": "bool[]"
        },
        {
          "name": "",
          "type": "bytes32[]"
        }
      ],
      "payable": false,
      "stateMutability": "nonpayable",
      "type": "function"
    },
    {
      "constant": false,
      "inputs": [
        {
          "name": "pn",
          "type": "bytes32"
        },
        {
          "name": "price",
          "type": "uint256"
        }
      ],
      "name": "updatePrice",
      "outputs": [
        {
          "name": "",
          "type": "bytes32"
        }
      ],
      "payable": false,
      "stateMutability": "nonpayable",
      "type": "function"
    },
    {
      "constant": false,
      "inputs": [
        {
          "name": "pn",
          "type": "bytes32"
        }
      ],
      "name": "buy",
      "outputs": [
        {
          "name": "",
          "type": "bytes32"
        }
      ],
      "payable": true,
      "stateMutability": "payable",
      "type": "function"
    },
    {
      "constant": true,
      "inputs": [],
      "name": "getBalance",
      "outputs": [
        {
          "name": "",
          "type": "uint256"
        }
      ],
      "payable": false,
      "stateMutability": "view",
      "type": "function"
    },
    {
      "constant": false,
      "inputs": [
        {
          "name": "amount",
          "type": "uint256"
        }
      ],
      "name": "addBalance",
      "outputs": [],
      "payable": false,
      "stateMutability": "nonpayable",
      "type": "function"
    }
  ],
  "bytecode": "0x608060405234801561001057600080fd5b50611433806100206000396000f3006080604052600436106100d0576000357c0100000000000000000000000000000000000000000000000000000000900463ffffffff16806312065fe0146100d5578063215407061461010057806327e235e3146101295780634d25dd1214610166578063546209fd146101945780635f704f3e146101d65780636719bc6214610213578063789d392a146102505780637937a6b31461028d57806395aa3590146102ca57806396c9d311146103075780639c9a106114610334578063c095321414610364578063d91921ed1461038d575b600080fd5b3480156100e157600080fd5b506100ea6103b6565b6040516100f791906112fb565b60405180910390f35b34801561010c57600080fd5b5061012760048036036101229190810190610ff2565b6103fd565b005b34801561013557600080fd5b50610150600480360361014b9190810190610eec565b6105ff565b60405161015d91906112fb565b60405180910390f35b34801561017257600080fd5b5061017b610617565b60405161018b9493929190611233565b60405180910390f35b3480156101a057600080fd5b506101bb60048036036101b69190810190610f51565b610868565b6040516101cd969594939291906111d2565b60405180910390f35b3480156101e257600080fd5b506101fd60048036036101f89190810190610fb6565b6108f1565b60405161020a91906112e0565b60405180910390f35b34801561021f57600080fd5b5061023a60048036036102359190810190611041565b610999565b60405161024791906112e0565b60405180910390f35b34801561025c57600080fd5b5061027760048036036102729190810190610f51565b6109bc565b60405161028491906111b7565b60405180910390f35b34801561029957600080fd5b506102b460048036036102af9190810190610f51565b610a01565b6040516102c191906111b7565b60405180910390f35b3480156102d657600080fd5b506102f160048036036102ec9190810190610f15565b610a34565b6040516102fe91906112e0565b60405180910390f35b34801561031357600080fd5b5061031c610a64565b60405161032b93929190611294565b60405180910390f35b61034e60048036036103499190810190610f51565b610c25565b60405161035b91906112e0565b60405180910390f35b34801561037057600080fd5b5061038b60048036036103869190810190610f7a565b610e02565b005b34801561039957600080fd5b506103b460048036036103af9190810190611041565b610e60565b005b6000600160003373ffffffffffffffffffffffffffffffffffffffff1673ffffffffffffffffffffffffffffffffffffffff16815260200190815260200160002054905090565b600460003373ffffffffffffffffffffffffffffffffffffffff1673ffffffffffffffffffffffffffffffffffffffff16815260200190815260200160002083908060018154018082558091505090600182039060005260206000200160009091929091909150906000191690555060c0604051908101604052803373ffffffffffffffffffffffffffffffffffffffff16815260200184600019168152602001838152602001600015158152602001600073ffffffffffffffffffffffffffffffffffffffff168152602001826000191681525060036000856000191660001916815260200190815260200160002060008201518160000160006101000a81548173ffffffffffffffffffffffffffffffffffffffff021916908373ffffffffffffffffffffffffffffffffffffffff160217905550602082015181600101906000191690556040820151816002015560608201518160030160006101000a81548160ff02191690831515021790555060808201518160030160016101000a81548173ffffffffffffffffffffffffffffffffffffffff021916908373ffffffffffffffffffffffffffffffffffffffff16021790555060a082015181600401906000191690559050506000839080600181540180825580915050906001820390600052602060002001600090919290919091509060001916905550505050565b60016020528060005260406000206000915090505481565b6060806060806000606080606080600080600080600460003373ffffffffffffffffffffffffffffffffffffffff1673ffffffffffffffffffffffffffffffffffffffff1681526020019081526020016000209850888054905060405190808252806020026020018201604052801561069f5781602001602082028038833980820191505090505b50975088805490506040519080825280602002602001820160405280156106d55781602001602082028038833980820191505090505b509650888054905060405190808252806020026020018201604052801561070b5781602001602082028038833980820191505090505b50955088805490506040519080825280602002602001820160405280156107415781602001602082028038833980820191505090505b50945060009350600092505b888054905083101561084d57888381548110151561076757fe5b9060005260206000200154915060036000836000191660001916815260200190815260200160002090508188858151811015156107a057fe5b906020019060200201906000191690816000191681525050806002015487858151811015156107cb57fe5b90602001906020020181815250508060030160009054906101000a900460ff1686858151811015156107f957fe5b90602001906020020190151590811515815250508060040154858581518110151561082057fe5b9060200190602002019060001916908160001916815250508380600101945050828060010193505061074d565b878787879c509c509c509c5050505050505050505090919293565b60036020528060005260406000206000915090508060000160009054906101000a900473ffffffffffffffffffffffffffffffffffffffff16908060010154908060020154908060030160009054906101000a900460ff16908060030160019054906101000a900473ffffffffffffffffffffffffffffffffffffffff16908060040154905086565b600060036000846000191660001916815260200190815260200160002060030160009054906101000a900460ff161561094c577f534f4c44000000000000000000000000000000000000000000000000000000009050610993565b81600360008560001916600019168152602001908152602001600020600201819055507f535543434553530000000000000000000000000000000000000000000000000090505b92915050565b6000818154811015156109a857fe5b906000526020600020016000915090505481565b600060026000836000191660001916815260200190815260200160002060009054906101000a900473ffffffffffffffffffffffffffffffffffffffff169050919050565b60026020528060005260406000206000915054906101000a900473ffffffffffffffffffffffffffffffffffffffff1681565b600460205281600052604060002081815481101515610a4f57fe5b90600052602060002001600091509150505481565b606080606080606080600080600080600080549050604051908082528060200260200182016040528015610aa75781602001602082028038833980820191505090505b509650600080549050604051908082528060200260200182016040528015610ade5781602001602082028038833980820191505090505b509550600080549050604051908082528060200260200182016040528015610b155781602001602082028038833980820191505090505b50945060009350600092505b600080549050831015610c1057600083815481101515610b3d57fe5b9060005260206000200154915060036000836000191660001916815260200190815260200160002090508060030160009054906101000a900460ff1615610b8357610c03565b80600101548785815181101515610b9657fe5b90602001906020020190600019169081600019168152505080600201548685815181101515610bc157fe5b906020019060200201818152505080600401548585815181101515610be257fe5b90602001906020020190600019169081600019168152505083806001019450505b8280600101935050610b21565b86868699509950995050505050505050909192565b60008060036000846000191660001916815260200190815260200160002090508060030160009054906101000a900460ff1615610c84577f534f4c44000000000000000000000000000000000000000000000000000000009150610dfc565b80600201543373ffffffffffffffffffffffffffffffffffffffff16311015610ccf577f494e53554646494349454e5400000000000000000000000000000000000000009150610dfc565b8060020154600160003373ffffffffffffffffffffffffffffffffffffffff1673ffffffffffffffffffffffffffffffffffffffff168152602001908152602001600020600082825403925050819055508060020154600160008360000160009054906101000a900473ffffffffffffffffffffffffffffffffffffffff1673ffffffffffffffffffffffffffffffffffffffff1673ffffffffffffffffffffffffffffffffffffffff16815260200190815260200160002060008282540192505081905550338160030160016101000a81548173ffffffffffffffffffffffffffffffffffffffff021916908373ffffffffffffffffffffffffffffffffffffffff1602179055507f535543434553530000000000000000000000000000000000000000000000000091505b50919050565b8060026000846000191660001916815260200190815260200160002060006101000a81548173ffffffffffffffffffffffffffffffffffffffff021916908373ffffffffffffffffffffffffffffffffffffffff1602179055505050565b80600160003373ffffffffffffffffffffffffffffffffffffffff1673ffffffffffffffffffffffffffffffffffffffff1681526020019081526020016000206000828254019250508190555050565b6000610ebc82356113c5565b905092915050565b6000610ed082356113e5565b905092915050565b6000610ee482356113ef565b905092915050565b600060208284031215610efe57600080fd5b6000610f0c84828501610eb0565b91505092915050565b60008060408385031215610f2857600080fd5b6000610f3685828601610eb0565b9250506020610f4785828601610ed8565b9150509250929050565b600060208284031215610f6357600080fd5b6000610f7184828501610ec4565b91505092915050565b60008060408385031215610f8d57600080fd5b6000610f9b85828601610ec4565b9250506020610fac85828601610eb0565b9150509250929050565b60008060408385031215610fc957600080fd5b6000610fd785828601610ec4565b9250506020610fe885828601610ed8565b9150509250929050565b60008060006060848603121561100757600080fd5b600061101586828701610ec4565b935050602061102686828701610ed8565b925050604061103786828701610ec4565b9150509250925092565b60006020828403121561105357600080fd5b600061106184828501610ed8565b91505092915050565b61107381611385565b82525050565b60006110848261133d565b80845260208401935061109683611316565b60005b828110156110c8576110ac86835161118a565b6110b58261135e565b9150602086019550600181019050611099565b50849250505092915050565b60006110df82611348565b8084526020840193506110f183611323565b60005b8281101561112357611107868351611199565b6111108261136b565b91506020860195506001810190506110f4565b50849250505092915050565b600061113a82611353565b80845260208401935061114c83611330565b60005b8281101561117e576111628683516111a8565b61116b82611378565b915060208601955060018101905061114f565b50849250505092915050565b611193816113a5565b82525050565b6111a2816113b1565b82525050565b6111b1816113bb565b82525050565b60006020820190506111cc600083018461106a565b92915050565b600060c0820190506111e7600083018961106a565b6111f46020830188611199565b61120160408301876111a8565b61120e606083018661118a565b61121b608083018561106a565b61122860a0830184611199565b979650505050505050565b6000608082019050818103600083015261124d81876110d4565b90508181036020830152611261818661112f565b905081810360408301526112758185611079565b9050818103606083015261128981846110d4565b905095945050505050565b600060608201905081810360008301526112ae81866110d4565b905081810360208301526112c2818561112f565b905081810360408301526112d681846110d4565b9050949350505050565b60006020820190506112f56000830184611199565b92915050565b600060208201905061131060008301846111a8565b92915050565b6000602082019050919050565b6000602082019050919050565b6000602082019050919050565b600081519050919050565b600081519050919050565b600081519050919050565b6000602082019050919050565b6000602082019050919050565b6000602082019050919050565b600073ffffffffffffffffffffffffffffffffffffffff82169050919050565b60008115159050919050565b6000819050919050565b6000819050919050565b600073ffffffffffffffffffffffffffffffffffffffff82169050919050565b6000819050919050565b60008190509190505600a265627a7a72305820da11ec30779a81b3e5b9edd74c14795e576045fc236962b6c8dce77bebef1aa76c6578706572696d656e74616cf50037",
  "source": "pragma solidity ^0.4.23;\npragma experimental ABIEncoderV2;\n\ncontract PatentSell {\n    // basic patent info\n    struct PatentInfo {\n        address owner;      // patent owner\n        bytes32 pn;         // patent number\n        uint price;         // published price\n        bool sold;          // sold already ?\n        address buyer;      // who bought this patent\n        bytes32 timestamp;  // publish time\n    }\n\n    // event Refresh (bytes32, bytes32);\n\n    bytes32[] public allPns;\n\n    mapping (address => uint) public balances;\n\n    mapping (bytes32 => address) public emailWalletMap;\n\n    mapping (bytes32 => PatentInfo) public patentInfos;\n\n    mapping (address => bytes32[]) public userPatents;\n\n    // bind wallet to an email\n    function bindWallet(bytes32 email, address wallet) public {\n        emailWalletMap[email] = wallet;\n    }\n\n    // get wallet address bind before\n    function getWallet(bytes32 email) public view returns (address) {\n        return emailWalletMap[email];\n    }\n\n    // publish a patent to platform\n    function publish(bytes32 pn, uint price, bytes32 timestamp) public {\n        // bind to current user patents\n        userPatents[msg.sender].push(pn);\n\n        // save patent detail info\n        patentInfos[pn] = PatentInfo({\n            owner : msg.sender,\n            pn : pn,\n            price : price,\n            sold : false,\n            buyer : 0,\n            timestamp: timestamp\n        });\n\n        // add to pn list\n        allPns.push(pn);\n\n        // refresh pages\n        // emit Refresh(\"PUBLISH\", pn);\n    }\n\n    // get all selling patents in platform\n    function getAllSellingPatents() public view returns (bytes32[], uint[], bytes32[]) {\n        bytes32[] memory pns = new bytes32[](allPns.length);\n        uint[] memory prices = new uint[](allPns.length);\n        bytes32[] memory timestamps = new bytes32[](allPns.length);\n        uint count = 0;\n        for (uint idx = 0; idx < allPns.length; idx++) {\n            bytes32 pn = allPns[idx];\n            PatentInfo storage info = patentInfos[pn];\n            if (info.sold) {\n                continue;\n            }\n\n            pns[count] = info.pn;\n            prices[count] = info.price;\n            timestamps[count] = info.timestamp;\n            count++;\n        }\n\n        return (pns, prices, timestamps);\n    }\n\n    // get all patents published by me\n    function getMyPatents() public returns (bytes32[], uint[], bool[], bytes32[]) {\n        bytes32[] storage patents = userPatents[msg.sender];\n        bytes32[] memory pns = new bytes32[](patents.length);\n        uint[] memory prices = new uint[](patents.length);\n        bool[] memory solds = new bool[](patents.length);\n        bytes32[] memory timestamps = new bytes32[](patents.length);\n\n        uint count = 0;\n        for (uint idx = 0; idx < patents.length; idx++) {\n            bytes32 pn = patents[idx];\n            PatentInfo storage info = patentInfos[pn];\n            pns[count] = pn;\n            prices[count] = info.price;\n            solds[count] = info.sold;\n            timestamps[count] = info.timestamp;\n            count++;\n        }\n        return (pns, prices, solds, timestamps);\n    }\n\n    // update patent price\n    function updatePrice(bytes32 pn, uint price) public returns (bytes32) {\n        if (patentInfos[pn].sold) {\n            return \"SOLD\";\n        }\n\n        patentInfos[pn].price = price;\n        return \"SUCCESS\";\n    }\n\n    // buy a patent\n    function buy(bytes32 pn) public payable returns (bytes32) {\n        PatentInfo storage info = patentInfos[pn];\n        if (info.sold) {\n            return \"SOLD\";\n        }\n\n        if (msg.sender.balance < info.price) {\n            return \"INSUFFICIENT\";\n        }\n\n        balances[msg.sender] -= info.price;\n        balances[info.owner] += info.price;\n        info.buyer = msg.sender;\n\n        // refresh pages\n        // emit Refresh(\"BUY\", pn);\n        return \"SUCCESS\";\n    }\n\n    // get balance of current account\n    function getBalance() public view returns (uint) {\n        return balances[msg.sender];\n    }\n\n    // add more balance\n    function addBalance(uint amount) public {\n        balances[msg.sender] += amount;\n    }\n}\n",
  "sourcePath": "F:\\blockchain\\peppa\\contracts\\PatentSell.sol",
  "compiler": {
    "name": "solc",
    "version": "0.4.23+commit.124ca40d.Emscripten.clang"
  },
  "schemaVersion": "2.0.0",
  "updatedAt": "2018-05-25T08:27:28.746Z"
}