{
  "contractName": "PatentSell",
  "abi": [
    {
      "constant": true,
      "inputs": [
        {
          "name": "",
          "type": "address"
        }
      ],
      "name": "balances",
      "outputs": [
        {
          "name": "",
          "type": "uint256"
        }
      ],
      "payable": false,
      "stateMutability": "view",
      "type": "function"
    },
    {
      "constant": true,
      "inputs": [
        {
          "name": "",
          "type": "bytes32"
        }
      ],
      "name": "patentInfos",
      "outputs": [
        {
          "name": "owner",
          "type": "address"
        },
        {
          "name": "pn",
          "type": "bytes32"
        },
        {
          "name": "price",
          "type": "uint256"
        },
        {
          "name": "sold",
          "type": "bool"
        },
        {
          "name": "buyer",
          "type": "address"
        },
        {
          "name": "timestamp",
          "type": "bytes32"
        }
      ],
      "payable": false,
      "stateMutability": "view",
      "type": "function"
    },
    {
      "constant": true,
      "inputs": [
        {
          "name": "",
          "type": "uint256"
        }
      ],
      "name": "allPns",
      "outputs": [
        {
          "name": "",
          "type": "bytes32"
        }
      ],
      "payable": false,
      "stateMutability": "view",
      "type": "function"
    },
    {
      "constant": true,
      "inputs": [
        {
          "name": "",
          "type": "bytes32"
        }
      ],
      "name": "emailWalletMap",
      "outputs": [
        {
          "name": "",
          "type": "address"
        }
      ],
      "payable": false,
      "stateMutability": "view",
      "type": "function"
    },
    {
      "constant": true,
      "inputs": [
        {
          "name": "",
          "type": "address"
        },
        {
          "name": "",
          "type": "uint256"
        }
      ],
      "name": "userPatents",
      "outputs": [
        {
          "name": "",
          "type": "bytes32"
        }
      ],
      "payable": false,
      "stateMutability": "view",
      "type": "function"
    },
    {
      "constant": false,
      "inputs": [
        {
          "name": "email",
          "type": "bytes32"
        },
        {
          "name": "wallet",
          "type": "address"
        }
      ],
      "name": "bindWallet",
      "outputs": [],
      "payable": false,
      "stateMutability": "nonpayable",
      "type": "function"
    },
    {
      "constant": true,
      "inputs": [
        {
          "name": "email",
          "type": "bytes32"
        }
      ],
      "name": "getWallet",
      "outputs": [
        {
          "name": "",
          "type": "address"
        }
      ],
      "payable": false,
      "stateMutability": "view",
      "type": "function"
    },
    {
      "constant": false,
      "inputs": [
        {
          "name": "pn",
          "type": "bytes32"
        },
        {
          "name": "price",
          "type": "uint256"
        },
        {
          "name": "timestamp",
          "type": "bytes32"
        }
      ],
      "name": "publish",
      "outputs": [],
      "payable": false,
      "stateMutability": "nonpayable",
      "type": "function"
    },
    {
      "constant": true,
      "inputs": [],
      "name": "getAllSellingPatents",
      "outputs": [
        {
          "name": "",
          "type": "bytes32[]"
        },
        {
          "name": "",
          "type": "uint256[]"
        },
        {
          "name": "",
          "type": "bytes32[]"
        }
      ],
      "payable": false,
      "stateMutability": "view",
      "type": "function"
    },
    {
      "constant": false,
      "inputs": [],
      "name": "getMyPatents",
      "outputs": [
        {
          "name": "",
          "type": "bytes32[]"
        },
        {
          "name": "",
          "type": "uint256[]"
        },
        {
          "name": "",
          "type": "bool[]"
        },
        {
          "name": "",
          "type": "bytes32[]"
        }
      ],
      "payable": false,
      "stateMutability": "nonpayable",
      "type": "function"
    },
    {
      "constant": false,
      "inputs": [
        {
          "name": "pn",
          "type": "bytes32"
        },
        {
          "name": "price",
          "type": "uint256"
        }
      ],
      "name": "updatePrice",
      "outputs": [
        {
          "name": "",
          "type": "bytes32"
        }
      ],
      "payable": false,
      "stateMutability": "nonpayable",
      "type": "function"
    },
    {
      "constant": false,
      "inputs": [
        {
          "name": "pn",
          "type": "bytes32"
        }
      ],
      "name": "buy",
      "outputs": [
        {
          "name": "",
          "type": "bytes32"
        }
      ],
      "payable": true,
      "stateMutability": "payable",
      "type": "function"
    },
    {
      "constant": true,
      "inputs": [
        {
          "name": "addr",
          "type": "address"
        }
      ],
      "name": "getBalance",
      "outputs": [
        {
          "name": "",
          "type": "uint256"
        }
      ],
      "payable": false,
      "stateMutability": "view",
      "type": "function"
    },
    {
      "constant": false,
      "inputs": [
        {
          "name": "addr",
          "type": "address"
        },
        {
          "name": "amount",
          "type": "uint256"
        }
      ],
      "name": "addBalance",
      "outputs": [],
      "payable": false,
      "stateMutability": "nonpayable",
      "type": "function"
    }
  ],
  "bytecode": "0x608060405234801561001057600080fd5b50611448806100206000396000f3006080604052600436106100d0576000357c0100000000000000000000000000000000000000000000000000000000900463ffffffff16806321540706146100d557806321e5383a146100fe57806327e235e3146101275780634d25dd1214610164578063546209fd146101925780635f704f3e146101d45780636719bc6214610211578063789d392a1461024e5780637937a6b31461028b57806395aa3590146102c857806396c9d311146103055780639c9a106114610332578063c095321414610362578063f8b2cb4f1461038b575b600080fd5b3480156100e157600080fd5b506100fc60048036036100f79190810190611007565b6103c8565b005b34801561010a57600080fd5b5061012560048036036101209190810190610f2a565b6105ca565b005b34801561013357600080fd5b5061014e60048036036101499190810190610f01565b61061b565b60405161015b9190611310565b60405180910390f35b34801561017057600080fd5b50610179610633565b6040516101899493929190611248565b60405180910390f35b34801561019e57600080fd5b506101b960048036036101b49190810190610f66565b610884565b6040516101cb969594939291906111e7565b60405180910390f35b3480156101e057600080fd5b506101fb60048036036101f69190810190610fcb565b61090d565b60405161020891906112f5565b60405180910390f35b34801561021d57600080fd5b5061023860048036036102339190810190611056565b6109b5565b60405161024591906112f5565b60405180910390f35b34801561025a57600080fd5b5061027560048036036102709190810190610f66565b6109d8565b60405161028291906111cc565b60405180910390f35b34801561029757600080fd5b506102b260048036036102ad9190810190610f66565b610a1d565b6040516102bf91906111cc565b60405180910390f35b3480156102d457600080fd5b506102ef60048036036102ea9190810190610f2a565b610a50565b6040516102fc91906112f5565b60405180910390f35b34801561031157600080fd5b5061031a610a80565b604051610329939291906112a9565b60405180910390f35b61034c60048036036103479190810190610f66565b610c41565b60405161035991906112f5565b60405180910390f35b34801561036e57600080fd5b5061038960048036036103849190810190610f8f565b610e1e565b005b34801561039757600080fd5b506103b260048036036103ad9190810190610f01565b610e7c565b6040516103bf9190611310565b60405180910390f35b600460003373ffffffffffffffffffffffffffffffffffffffff1673ffffffffffffffffffffffffffffffffffffffff16815260200190815260200160002083908060018154018082558091505090600182039060005260206000200160009091929091909150906000191690555060c0604051908101604052803373ffffffffffffffffffffffffffffffffffffffff16815260200184600019168152602001838152602001600015158152602001600073ffffffffffffffffffffffffffffffffffffffff168152602001826000191681525060036000856000191660001916815260200190815260200160002060008201518160000160006101000a81548173ffffffffffffffffffffffffffffffffffffffff021916908373ffffffffffffffffffffffffffffffffffffffff160217905550602082015181600101906000191690556040820151816002015560608201518160030160006101000a81548160ff02191690831515021790555060808201518160030160016101000a81548173ffffffffffffffffffffffffffffffffffffffff021916908373ffffffffffffffffffffffffffffffffffffffff16021790555060a082015181600401906000191690559050506000839080600181540180825580915050906001820390600052602060002001600090919290919091509060001916905550505050565b80600160008473ffffffffffffffffffffffffffffffffffffffff1673ffffffffffffffffffffffffffffffffffffffff168152602001908152602001600020600082825401925050819055505050565b60016020528060005260406000206000915090505481565b6060806060806000606080606080600080600080600460003373ffffffffffffffffffffffffffffffffffffffff1673ffffffffffffffffffffffffffffffffffffffff168152602001908152602001600020985088805490506040519080825280602002602001820160405280156106bb5781602001602082028038833980820191505090505b50975088805490506040519080825280602002602001820160405280156106f15781602001602082028038833980820191505090505b50965088805490506040519080825280602002602001820160405280156107275781602001602082028038833980820191505090505b509550888054905060405190808252806020026020018201604052801561075d5781602001602082028038833980820191505090505b50945060009350600092505b888054905083101561086957888381548110151561078357fe5b9060005260206000200154915060036000836000191660001916815260200190815260200160002090508188858151811015156107bc57fe5b906020019060200201906000191690816000191681525050806002015487858151811015156107e757fe5b90602001906020020181815250508060030160009054906101000a900460ff16868581518110151561081557fe5b90602001906020020190151590811515815250508060040154858581518110151561083c57fe5b90602001906020020190600019169081600019168152505083806001019450508280600101935050610769565b878787879c509c509c509c5050505050505050505090919293565b60036020528060005260406000206000915090508060000160009054906101000a900473ffffffffffffffffffffffffffffffffffffffff16908060010154908060020154908060030160009054906101000a900460ff16908060030160019054906101000a900473ffffffffffffffffffffffffffffffffffffffff16908060040154905086565b600060036000846000191660001916815260200190815260200160002060030160009054906101000a900460ff1615610968577f534f4c440000000000000000000000000000000000000000000000000000000090506109af565b81600360008560001916600019168152602001908152602001600020600201819055507f535543434553530000000000000000000000000000000000000000000000000090505b92915050565b6000818154811015156109c457fe5b906000526020600020016000915090505481565b600060026000836000191660001916815260200190815260200160002060009054906101000a900473ffffffffffffffffffffffffffffffffffffffff169050919050565b60026020528060005260406000206000915054906101000a900473ffffffffffffffffffffffffffffffffffffffff1681565b600460205281600052604060002081815481101515610a6b57fe5b90600052602060002001600091509150505481565b606080606080606080600080600080600080549050604051908082528060200260200182016040528015610ac35781602001602082028038833980820191505090505b509650600080549050604051908082528060200260200182016040528015610afa5781602001602082028038833980820191505090505b509550600080549050604051908082528060200260200182016040528015610b315781602001602082028038833980820191505090505b50945060009350600092505b600080549050831015610c2c57600083815481101515610b5957fe5b9060005260206000200154915060036000836000191660001916815260200190815260200160002090508060030160009054906101000a900460ff1615610b9f57610c1f565b80600101548785815181101515610bb257fe5b90602001906020020190600019169081600019168152505080600201548685815181101515610bdd57fe5b906020019060200201818152505080600401548585815181101515610bfe57fe5b90602001906020020190600019169081600019168152505083806001019450505b8280600101935050610b3d565b86868699509950995050505050505050909192565b60008060036000846000191660001916815260200190815260200160002090508060030160009054906101000a900460ff1615610ca0577f534f4c44000000000000000000000000000000000000000000000000000000009150610e18565b80600201543373ffffffffffffffffffffffffffffffffffffffff16311015610ceb577f494e53554646494349454e5400000000000000000000000000000000000000009150610e18565b8060020154600160003373ffffffffffffffffffffffffffffffffffffffff1673ffffffffffffffffffffffffffffffffffffffff168152602001908152602001600020600082825403925050819055508060020154600160008360000160009054906101000a900473ffffffffffffffffffffffffffffffffffffffff1673ffffffffffffffffffffffffffffffffffffffff1673ffffffffffffffffffffffffffffffffffffffff16815260200190815260200160002060008282540192505081905550338160030160016101000a81548173ffffffffffffffffffffffffffffffffffffffff021916908373ffffffffffffffffffffffffffffffffffffffff1602179055507f535543434553530000000000000000000000000000000000000000000000000091505b50919050565b8060026000846000191660001916815260200190815260200160002060006101000a81548173ffffffffffffffffffffffffffffffffffffffff021916908373ffffffffffffffffffffffffffffffffffffffff1602179055505050565b6000600160008373ffffffffffffffffffffffffffffffffffffffff1673ffffffffffffffffffffffffffffffffffffffff168152602001908152602001600020549050919050565b6000610ed182356113da565b905092915050565b6000610ee582356113fa565b905092915050565b6000610ef98235611404565b905092915050565b600060208284031215610f1357600080fd5b6000610f2184828501610ec5565b91505092915050565b60008060408385031215610f3d57600080fd5b6000610f4b85828601610ec5565b9250506020610f5c85828601610eed565b9150509250929050565b600060208284031215610f7857600080fd5b6000610f8684828501610ed9565b91505092915050565b60008060408385031215610fa257600080fd5b6000610fb085828601610ed9565b9250506020610fc185828601610ec5565b9150509250929050565b60008060408385031215610fde57600080fd5b6000610fec85828601610ed9565b9250506020610ffd85828601610eed565b9150509250929050565b60008060006060848603121561101c57600080fd5b600061102a86828701610ed9565b935050602061103b86828701610eed565b925050604061104c86828701610ed9565b9150509250925092565b60006020828403121561106857600080fd5b600061107684828501610eed565b91505092915050565b6110888161139a565b82525050565b600061109982611352565b8084526020840193506110ab8361132b565b60005b828110156110dd576110c186835161119f565b6110ca82611373565b91506020860195506001810190506110ae565b50849250505092915050565b60006110f48261135d565b80845260208401935061110683611338565b60005b828110156111385761111c8683516111ae565b61112582611380565b9150602086019550600181019050611109565b50849250505092915050565b600061114f82611368565b80845260208401935061116183611345565b60005b82811015611193576111778683516111bd565b6111808261138d565b9150602086019550600181019050611164565b50849250505092915050565b6111a8816113ba565b82525050565b6111b7816113c6565b82525050565b6111c6816113d0565b82525050565b60006020820190506111e1600083018461107f565b92915050565b600060c0820190506111fc600083018961107f565b61120960208301886111ae565b61121660408301876111bd565b611223606083018661119f565b611230608083018561107f565b61123d60a08301846111ae565b979650505050505050565b6000608082019050818103600083015261126281876110e9565b905081810360208301526112768186611144565b9050818103604083015261128a818561108e565b9050818103606083015261129e81846110e9565b905095945050505050565b600060608201905081810360008301526112c381866110e9565b905081810360208301526112d78185611144565b905081810360408301526112eb81846110e9565b9050949350505050565b600060208201905061130a60008301846111ae565b92915050565b600060208201905061132560008301846111bd565b92915050565b6000602082019050919050565b6000602082019050919050565b6000602082019050919050565b600081519050919050565b600081519050919050565b600081519050919050565b6000602082019050919050565b6000602082019050919050565b6000602082019050919050565b600073ffffffffffffffffffffffffffffffffffffffff82169050919050565b60008115159050919050565b6000819050919050565b6000819050919050565b600073ffffffffffffffffffffffffffffffffffffffff82169050919050565b6000819050919050565b60008190509190505600a265627a7a723058206460a71a2ace6ff90438bf3df5f74ae70ed7027cd4bf3cf315ddf2a2a29d89b26c6578706572696d656e74616cf50037",
  "source": "pragma solidity ^0.4.23;\npragma experimental ABIEncoderV2;\n\ncontract PatentSell {\n    // basic patent info\n    struct PatentInfo {\n        address owner;      // patent owner\n        bytes32 pn;         // patent number\n        uint price;         // published price\n        bool sold;          // sold already ?\n        address buyer;      // who bought this patent\n        bytes32 timestamp;  // publish time\n    }\n\n    // event Refresh (bytes32, bytes32);\n\n    bytes32[] public allPns;\n\n    mapping (address => uint) public balances;\n\n    mapping (bytes32 => address) public emailWalletMap;\n\n    mapping (bytes32 => PatentInfo) public patentInfos;\n\n    mapping (address => bytes32[]) public userPatents;\n\n    // bind wallet to an email\n    function bindWallet(bytes32 email, address wallet) public {\n        emailWalletMap[email] = wallet;\n    }\n\n    // get wallet address bind before\n    function getWallet(bytes32 email) public view returns (address) {\n        return emailWalletMap[email];\n    }\n\n    // publish a patent to platform\n    function publish(bytes32 pn, uint price, bytes32 timestamp) public {\n        // bind to current user patents\n        userPatents[msg.sender].push(pn);\n\n        // save patent detail info\n        patentInfos[pn] = PatentInfo({\n            owner : msg.sender,\n            pn : pn,\n            price : price,\n            sold : false,\n            buyer : 0,\n            timestamp: timestamp\n        });\n\n        // add to pn list\n        allPns.push(pn);\n\n        // refresh pages\n        // emit Refresh(\"PUBLISH\", pn);\n    }\n\n    // get all selling patents in platform\n    function getAllSellingPatents() public view returns (bytes32[], uint[], bytes32[]) {\n        bytes32[] memory pns = new bytes32[](allPns.length);\n        uint[] memory prices = new uint[](allPns.length);\n        bytes32[] memory timestamps = new bytes32[](allPns.length);\n        uint count = 0;\n        for (uint idx = 0; idx < allPns.length; idx++) {\n            bytes32 pn = allPns[idx];\n            PatentInfo storage info = patentInfos[pn];\n            if (info.sold) {\n                continue;\n            }\n\n            pns[count] = info.pn;\n            prices[count] = info.price;\n            timestamps[count] = info.timestamp;\n            count++;\n        }\n\n        return (pns, prices, timestamps);\n    }\n\n    // get all patents published by me\n    function getMyPatents() public returns (bytes32[], uint[], bool[], bytes32[]) {\n        bytes32[] storage patents = userPatents[msg.sender];\n        bytes32[] memory pns = new bytes32[](patents.length);\n        uint[] memory prices = new uint[](patents.length);\n        bool[] memory solds = new bool[](patents.length);\n        bytes32[] memory timestamps = new bytes32[](patents.length);\n\n        uint count = 0;\n        for (uint idx = 0; idx < patents.length; idx++) {\n            bytes32 pn = patents[idx];\n            PatentInfo storage info = patentInfos[pn];\n            pns[count] = pn;\n            prices[count] = info.price;\n            solds[count] = info.sold;\n            timestamps[count] = info.timestamp;\n            count++;\n        }\n        return (pns, prices, solds, timestamps);\n    }\n\n    // update patent price\n    function updatePrice(bytes32 pn, uint price) public returns (bytes32) {\n        if (patentInfos[pn].sold) {\n            return \"SOLD\";\n        }\n\n        patentInfos[pn].price = price;\n        return \"SUCCESS\";\n    }\n\n    // buy a patent\n    function buy(bytes32 pn) public payable returns (bytes32) {\n        PatentInfo storage info = patentInfos[pn];\n        if (info.sold) {\n            return \"SOLD\";\n        }\n\n        if (msg.sender.balance < info.price) {\n            return \"INSUFFICIENT\";\n        }\n\n        balances[msg.sender] -= info.price;\n        balances[info.owner] += info.price;\n        info.buyer = msg.sender;\n\n        // refresh pages\n        // emit Refresh(\"BUY\", pn);\n        return \"SUCCESS\";\n    }\n\n    // get balance of current account\n    function getBalance(address addr) public view returns (uint) {\n        return balances[addr];\n    }\n\n    // add more balance\n    function addBalance(address addr, uint amount) public {\n        balances[addr] += amount;\n    }\n}\n",
  "sourcePath": "F:\\blockchain\\peppa\\contracts\\PatentSell.sol",
  "compiler": {
    "name": "solc",
    "version": "0.4.23+commit.124ca40d.Emscripten.clang"
  },
  "schemaVersion": "2.0.0",
  "updatedAt": "2018-05-25T07:49:06.956Z"
}